:020000040800F2
:1000000000000220D9970008151500081F150008E8
:10001000251500082B150008311500080000000008
:10002000000000000000000000000000371500087C
:100030004515000800000000531500086115000870
:10004000299800082998000829980008299800088C
:1000500029980008299800086D15000829980008BB
:100060002998000829980008299800087D1500089B
:1000700091150008A515000829980008299800087E
:10008000299800082998000829980008299800084C
:10009000299800082998000829980008299800083C
:1000A000299800082998000829980008299800082C
:1000B000B9150008CD150008E115000829980008B9
:1000C000299800082998000829980008299800080C
:1000D00029980008F51500082998000829980008B3
:1000E00029980008299800082998000829980008EC
:1000F00029980008299800082998000829980008DC
:1001000029980008299800082998000829980008CB
:1001100029980008299800082998000829980008BB
:1001200029980008299800082998000829980008AB
:10013000299800082998000829980008299800089B
:10014000299800082998000829980008299800088B
:10015000299800082998000829980008091600081D
:10016000299800082998000829980008299800086B
:10017000299800082998000829980008299800085B
:10018000299800082998000829980008299800084B
:100190002998000800000000299800082998000804
:1001A000299800082998000829980008299800082B
:1001B000299800082998000829980008299800081B
:1001C000299800082998000829980008299800080B
:0801D000299800082998000895
:1001D80010B5054C237833B9044B13B10448AFF379
:1001E80000800123237010BD0C00002000000000D7
:1001F8002C98000808B5034B1BB103490348AFF31B
:10020800008008BD00000000100000202C980008A5
:1002180053B94AB9002908BF00281CBF4FF0FF3165
:100228004FF0FF3000F088B9ADF1080C6DE904CE4D
:1002380000F006F8DDF804E0DDE9022304B07047B9
:100248002DE9F047089D0F4604468C46002B48D1FF
:100258008A42164661D9B2FA82F34BB1C3F1200241
:1002680001FA03FC20FA02F29E4042EA0C0C9C4080
:100278004FEA164EB7B2BCFBFEF1220C0EFB11CCB6
:1002880042EA0C4201FB07F0904209D9B21801F189
:10029800FF3C80F0EE80904240F2EB80023932441D
:1002A800121AA4B2B2FBFEF00EFB102244EA02447A
:1002B80000FB07F7A74209D9341900F1FF3280F093
:1002C800DA80A74240F2D7803444023840EA01403D
:1002D800E41B00211DB1DC400023C5E90043BDE853
:1002E800F0878B4206D90DB1C5E900010021084607
:1002F800BDE8F087B3FA83F1002948D1BB4202D3A5
:10030800824200F20781841A67EB030201209446B7
:10031800002DE4D0C5E9004CE1E7002A00F0928006
:10032800B2FA82F3002B40F0A8808A1A4FEA164EE0
:100338001FFA86FC0121200CB2FBFEF70EFB1722E8
:1003480040EA02420CFB07F0904207D9B21807F1C5
:10035800FF3802D2904200F2E2804746121AA4B255
:10036800B2FBFEF00EFB102244EA02440CFB00FC38
:10037800A44507D9341900F1FF3202D2A44500F28E
:10038800CB801046A4EB0C0440EA0740A2E7C1F179
:1003980020068B4022FA06FC4CEA030C07FA01F40B
:1003A80020FA06F3F7404FEA1C49234300FA01F804
:1003B8001FFA8CFEB7FBF9F01C0C09FB107744EA16
:1003C800074400FB0EF7A74202FA01F20AD91CEB18
:1003D800040400F1FF3A80F09B80A74240F2988025
:1003E80002386444E41B9FB2B4FBF9F309FB1344DD
:1003F80047EA044403FB0EFEA64509D91CEB040496
:1004080003F1FF3780F08280A6457FD9023B644420
:1004180043EA0040A4EB0E04A0FB02E7BC4273468B
:10042800B94663D360D05DB1B8EB030264EB09044D
:1004380004FA06F622FA01F31E43CC40C5E900642B
:1004480000214CE76208480842EAC1710B0C43EAF4
:1004580000438AB242EA0342B3FBF6F1E407B4462A
:100468003746B6461F23B0FBF6F0D21B41EA0041DF
:1004780061E7614614E7104628E7C3F1200120FA36
:1004880001F29E4027FA01F19F403A434FEA164E87
:100498001FFA86FCB1FBFEF70EFB1710110C41EAA0
:1004A800004107FB0CF8884504FA03F43AD971189F
:1004B80007F1FF3001D288451FD8A1EB0801B1FB35
:1004C800FEF808FB0CF70EFB181192B242EA014243
:1004D800BA422FD2B21808F1FF31C6D2BA42C4D2FA
:1004E800A8F102013244C0E7F0459CD2BEEB0203FA
:1004F80067EB0C070138B94695E7A6EB08084144B5
:10050800B81EB1FBFEF808FB0CF7DCE73B467FE7BB
:10051800504667E70846FBE63444023832E7023FB4
:1005280032441BE7A1EB08013846B1FBFEF808FB93
:100538000CF7C8E7414698E7704700BF02440346F6
:10054800934200D1704703F8011BF9E770B50D4BD2
:100558000D4D5B1B9C100026A64209D109F062F9DB
:100568000A4D0B4B5B1B9C100026A64205D170BDA3
:1005780055F8043B98470136EEE755F8043B984791
:100588000136F2E78C9800088C9800088C980008CF
:100598009098000880B58CB000AF07F124030022C2
:1005A8001A605A609A603B1D202200211846FFF706
:1005B800C5FF4E4B4FF0A0421A604C4B4FF44032EF
:1005C8005A604A4B00229A60484B0022DA60474B37
:1005D80000221A61454B01225A61444B08229A6154
:1005E800424B00221A77414B00225A773F4B042294
:1005F8001A623E4B002283F824203C4B4FF4D4620D
:10060800DA623A4B4FF480621A63384B012283F85E
:100618003820364B4FF48052DA63344B012283F88A
:100628004020324B04225A64304B20229A642F4BCC
:100638000022DA642D4B01221A652C4801F090FD46
:100648000346002B01D000F0B5FE00237B6207F1C2
:1006580024031946254802F0A5FB0346002B01D0C8
:1006680000F0A8FE224B7B600623BB600023FB60E2
:100678007F233B6104237B610023BB613B1D19463B
:100688001A4801F029FF0346002B01D000F092FE22
:10069800184B7B600C23BB603B1D1946134801F0C7
:1006A8001BFF0346002B01D000F084FE124B7B6039
:1006B8001223BB603B1D19460C4801F00DFF034691
:1006C800002B01D000F076FE0C4B7B601823BB603A
:1006D8003B1D1946054801F0FFFE0346002B01D0DB
:1006E80000F068FE00BF3037BD4680BD28000020FE
:1006F80002003004040060080800900C1000C010CC
:1007080080B588B000AF3B46202200211846FFF78D
:1007180015FF314B314A1A602F4B4FF440325A6063
:100728002D4B00229A602C4B0022DA602A4B0022C3
:100738001A61294B00225A61274B04229A61264BE1
:1007480000221A77244B00225A77234B01221A627F
:10075800214B002283F824201F4B0022DA621E4B13
:1007680000221A631C4B002283F838201A4B4FF4DE
:100778008052DA63184B012283F84020164B1C2262
:100788005A64154B80229A64134B0022DA64124B88
:1007980001221A65104801F0E3FC0346002B01D042
:1007A80000F008FE0E4B3B6006237B600523BB6010
:1007B8007F23FB6004233B6100237B613B46194692
:1007C800054801F089FE0346002B01D000F0F2FD38
:1007D80000BF2037BD4680BD9400002000010050B6
:1007E8000000524780B588B000AF3B462022002168
:1007F8001846FFF7A3FE314B314A1A602F4B4FF4CE
:1008080040325A602D4B00229A602C4B0022DA604D
:100818002A4B00221A61294B00225A61274B0422D5
:100828009A61264B00221A77244B00225A77234BD1
:1008380001221A62214B002283F824201F4B002238
:10084800DA621E4B00221A631C4B002283F8382000
:100858001A4B4FF48052DA63184B012283F8402078
:10086800164B14225A64154B60229A64134B0022CB
:10087800DA64124B01221A65104801F071FC034634
:10088800002B01D000F096FD0E4B3B6006237B60E9
:100898000723BB607F23FB6004233B6100237B614C
:1008A8003B461946054801F017FE0346002B01D0C8
:1008B80000F080FD00BF2037BD4680BD000100204C
:1008C800000600501000C09080B5A2B000AF78605C
:1008D80007F1740300221A605A609A60DA601A619C
:1008E80007F12003542200211846FFF727FE7B68F2
:1008F8001B68B3F1A04F6AD14FF400433B624FF03D
:1009080000537B6607F12003184605F0EFFF034606
:10091800002B01D000F04EFD614B1B680133604A8B
:1009280013605F4B1B68012B0BD15E4BDB6C5D4A80
:1009380043F40053D3645B4BDB6C03F40053FB615B
:10094800FB69584BDB6C574A43F00103D364554BA2
:10095800DB6C03F00103BB61BB690F237B670323D7
:10096800BB670023FB6707F1740319464FF09040FB
:1009780002F0AAFE4C4B4D4A1A604B4B05225A60B6
:10098800494B00229A60484B0022DA60464B80228D
:100998001A61454B4FF480725A61434B4FF48062A1
:1009A8009A61414B2022DA613F4B4FF400521A62A0
:1009B8003D4802F00FFC0346002B01D000F0FAFC82
:1009C8007B68394A5A65384A7B68936264E07B6879
:1009D8001B68374A93423ED14FF400433B624FF0C5
:1009E80000537B6607F12003184605F07FFF034696
:1009F800002B01D000F0DEFC294B1B680133284A8C
:100A08001360274B1B68012B0BD1264BDB6C254A47
:100A180043F40053D364234BDB6C03F400537B6132
:100A28007B69204BDB6C1F4A43F00103D3641D4BE9
:100A3800DB6C03F001033B613B6910237B670323F5
:100A4800BB670023FB6707F1740319464FF090401A
:100A580002F03AFE20E07B681B68164A93421BD1DD
:100A68004FF480333B624FF00043BB6607F120032D
:100A7800184605F03BFF0346002B01D000F09AFC16
:100A8800084BDB6C074A43F48043D364054BDB6CAB
:100A980003F48043FB60FB6800BF8837BD4680BD18
:100AA800CC010020001002406C0100200800024028
:100AB800000100500006005080B582B000AF1A4B0C
:100AC8009B6C194A43F004039364174B9B6C03F027
:100AD80004037B607B68144B9B6C134A43F001034F
:100AE8009364114B9B6C03F001033B603B6800224D
:100AF80005210B2002F039FB0B2002F050FB0022ED
:100B080005210C2002F031FB0C2002F048FB0022EA
:100B180005210D2002F029FB0D2002F040FB00BF4B
:100B28000837BD4680BD00BF0010024080B58AB0BE
:100B380000AF07F1140300221A605A609A60DA6065
:100B48001A61534BDB6C524A43F00403D364504B95
:100B5800DB6C03F004033B613B694D4BDB6C4C4A97
:100B680043F02003D3644A4BDB6C03F02003FB60A3
:100B7800FB68474BDB6C464A43F00103D364444BA4
:100B8800DB6C03F00103BB60BB68414BDB6C404A84
:100B980043F00203D3643E4BDB6C03F002037B603B
:100BA8007B683B4BDB6C3A4A43F00803D364384B11
:100BB800DB6C03F008033B603B68012230213548B9
:100BC80002F004FF01220421334802F0FFFE012253
:100BD8002021324802F0FAFE01237B614FF404130E
:100BE800BB610023FB6107F114031946294802F091
:100BF8006BFD06237B610023BB610023FB6107F1CA
:100C080014031946234802F05FFDC0237B610023CB
:100C1800BB610023FB6107F1140319464FF09040B4
:100C280002F052FD30237B610123BB610023FB618D
:100C380001233B6207F114031946164802F044FDEC
:100C480004237B610123BB610023FB6103233B6217
:100C580007F114031946104802F036FD20237B6182
:100C68000123BB610023FB6101233B6207F11403ED
:100C780019460A4802F028FD00220621062002F043
:100C880074FA062002F08BFA00BF2837BD4680BDF3
:100C98000010024000080048000C0048000400480A
:100CA80080B5BAB000AF07F1E00300221A605A60BD
:100CB80007F1D00300221A605A609A60DA6007F1DF
:100CC800B40300221A605A609A60DA601A615A61A5
:100CD8009A6107F15403602200211846FFF72EFCA1
:100CE80007F1480300221A605A609A6007F124034A
:100CF800242200211846FFF721FC3B1D2022002159
:100D08001846FFF71BFCC64BC64A1A60C44B0022A4
:100D18005A60C34B00229A60C14802F093FE034612
:100D2800002B01D000F046FB0C21BD4802F05AFF11
:100D38000346002B01D000F03DFB0A21B84802F021
:100D4800A9FF0346002B01D000F034FB4FF48023A9
:100D5800C7F8E0304FF00073C7F8E43007F1E0035C
:100D68001A460121AE4802F0F1FF0346002B01D0DC
:100D780000F020FB00220121A94803F0D3F9034623
:100D8800002B01D000F016FB47F23053C7F8D030E3
:100D98000023C7F8D4300023C7F8D8300823C7F891
:100DA800DC3007F1D0031A4603219D4802F0A6FF64
:100DB8000346002B01D000F0FDFA0023C7F8B43039
:100DC8000023C7F8BC300023C7F8C0300023C7F899
:100DD800CC3007F1B4031A460321914803F079FB9C
:100DE8000346002B01D000F0E5FA10237B650023B1
:100DF800BB650023FB6500233B6601237B6600235C
:100E0800BB660023FB6600233B6700237B67002348
:100E1800BB674FF00063FB670023C7F880300023EF
:100E2800C7F884304FF00053C7F888300023C7F85C
:100E38008C300023C7F890304FF00043C7F8943047
:100E48004FF48073C7F898300023C7F89C3000230C
:100E5800C7F8A4300023C7F8A8300023C7F8AC307F
:100E68000023C7F8B03007F154031A4603216C4831
:100E780003F0A2FA0346002B01D000F09BFA0023EE
:100E88007B650023C7F89C3007F154031A460521F7
:100E9800634803F091FA0346002B01D000F08AFA68
:100EA80043F69823BB6407F14803012203215C48F9
:100EB80003F0C2FB0346002B01D000F07BFA41F699
:100EC8004C53BB6407F1480304220321544803F040
:100ED800B3FB0346002B01D000F06CFA00237B62C1
:100EE8006423BB620023FB624FF400433B634FF46F
:100EF80080437B636423BB630023FB634FF00043A1
:100F08003B644FF080437B6407F124031A460321B6
:100F1800434803F011FB0346002B01D000F04AFAC6
:100F280007F124031A4605213D4803F005FB034653
:100F3800002B01D000F03EFA00237B600423BB6045
:100F48000823FB6000233B6100237B610023BB6116
:100F58000023FB6100233B623B1D402203213048F4
:100F680003F0D8FC0346002B01D000F023FA3B1D08
:100F78004FF4806205212A4803F0CCFC0346002B7D
:100F880001D000F017FA0023BB600023FB603B1D73
:100F980080220321224803F0BDFC0346002B01D028
:100FA80000F008FA3B1D4FF4006205211C4803F0CD
:100FB800B1FC0346002B01D000F0FCF90023C7F870
:100FC800D43007F1D0031A460521154802F096FEE1
:100FD8000346002B01D000F0EDF907F1B4031A46DF
:100FE80005210F4803F075FA0346002B01D000F0E5
:100FF800E1F94FF49673BB6407F148030122052118
:10100800074803F019FB0346002B01D000F0D2F982
:10101800034800F02FF800BFE837BD4680BD00BF89
:10102800D00100200068014080B584B000AF78602E
:101038007B681B680D4A934213D10D4B1B6E0C4AFB
:1010480043F0806313660A4B1B6E03F08063FB60FA
:10105800FB6800220121472002F087F8472002F0B0
:101068009EF800BF1037BD4680BD00BF0068014034
:101078000010024080B58AB000AF786007F1140311
:1010880000221A605A609A60DA601A617B681B68ED
:101098001F4A934238D11F4BDB6C1E4A43F00203B0
:1010A800D3641C4BDB6C03F002033B613B69194BB7
:1010B800DB6C184A43F00403D364164BDB6C03F073
:1010C8000403FB60FB684FF440437B610223BB6170
:1010D8000023FB6103233B620D237B6207F11403AA
:1010E80019460D4802F0F0FAC0237B610223BB6168
:1010F8000023FB6103233B620D237B6207F114038A
:101108001946064802F0E0FA00BF2837BD4680BD00
:101118000068014000100240000400480008004830
:1011280080B500AF1D4B1E4A1A601C4B1D4A5A6001
:101138001A4B00229A60194B0122DA60174B0022E1
:101148001A61164B00225A61144B00229A61134B04
:101158000022DA61114B00221A62104804F016FCD2
:101168000346002B01D000F025F900210B4804F0BC
:10117800A8FC0346002B01D000F01CF90021074809
:1011880004F0EAFC0346002B01D000F013F94FF4F9
:10119800800004F02DFD00BF80BD00BFCC02002000
:1011A800007800400F06524080B5A0B000AF7860CC
:1011B80007F16C0300221A605A609A60DA601A61BB
:1011C80007F11803542200211846FFF7B7F97B6886
:1011D8001B682E4A934255D14FF48073BB6100239C
:1011E800FB6307F11803184605F080FB0346002B44
:1011F80001D000F0DFF8264BDB6C254A43F00403EE
:10120800D364234BDB6C03F004037B617B69204BC5
:10121800DB6C1F4A43F00103D3641D4BDB6C03F006
:1012280001033B613B694FF40073FB6612233B6784
:1012380001237B670323BB670823FB6707F16C0364
:101248001946144802F040FA4FF48073FB661223E3
:101258003B6701237B670323BB670223FB6707F117
:101268006C0319464FF0904002F02EFA084B9B6D24
:10127800074A43F080439365054B9B6D03F0804319
:10128800FB60FB6800BF8037BD4680BD007800402A
:10129800001002400008004880B500AF0B4B0C4A14
:1012A8001A600A4B03225A60084B4FF47A72DA60CC
:1012B800064B4FF47A729A60044804F0B9FC03466E
:1012C800002B01D000F076F800BF80BD200300207D
:1012D8000030004080B500AF00F0FCFC00F01DF8C5
:1012E800FFF724FCFFF7E8FB00F0A6F9FFF718FF6B
:1012F800FFF750F9FFF704FA00F0E2FB00F086FA76
:10130800FFF770FAFFF7CCFC00F0E4F9FFF7C4FF31
:1013180000F02EFA00F054F8FEE780B594B000AF64
:1013280007F11803382200211846FFF707F93B1D7B
:1013380000221A605A609A60DA601A61002004F08C
:10134800C7FC0923BB614FF48033FB610123FB62B7
:1013580002237B630323BB630523FB6344233B64B2
:1013680002237B640223BB640223FB6407F1180396
:10137800184604F061FD0346002B01D000F01AF86E
:101388000F237B600323BB600023FB6000233B61CA
:1013980000237B613B1D0421184605F05FF80346D6
:1013A800002B01D000F006F805F02EFA00BF5037E8
:1013B800BD4680BD80B400AF72B600BFFEE7000036
:1013C80080B500AF1B4B1C4A1A601A4B4FF482724F
:1013D8005A60184B00229A60164B4FF4E062DA60AC
:1013E800144B00221A61134B00225A61114B4FF41F
:1013F80000729A610F4B1822DA610E4B00221A62B2
:101408000C4B00225A620B4B00229A62094B0722AE
:10141800DA62084B00221A63064B08225A63054811
:1014280005F0B2FC0346002B01D0FFF7C3FF00BF55
:1014380080BD00BF30030020003C004080B58AB06A
:1014480000AF786007F1140300221A605A609A60AE
:10145800DA601A617B681B68174A934228D1174BD8
:101468009B6D164A43F400439365144B9B6D03F43C
:1014780000433B613B69114BDB6C104A43F00403AA
:10148800D3640E4BDB6C03F00403FB60FB684FF482
:10149800E0537B610223BB610023FB6103233B62B2
:1014A80006237B6207F114031946054802F00CF97C
:1014B80000BF2837BD4680BD003C004000100240F8
:1014C8000008004880B582B000AF0F4B1B6E0E4A73
:1014D80043F0010313660C4B1B6E03F001037B60A2
:1014E8007B68094B9B6D084A43F080539365064B14
:1014F8009B6D03F080533B603B6804F08DFC00BF9C
:101508000837BD4680BD00BF0010024080B500AF5F
:1015180005F08AF9FEE780B400AFFEE780B400AFBB
:10152800FEE780B400AFFEE780B400AFFEE780B40A
:1015380000AF00BFBD465DF8047B704780B400AFC4
:1015480000BFBD465DF8047B704780B400AF00BFA4
:10155800BD465DF8047B704780B500AF00F00CFC19
:1015680000BF80BD80B500AF012002F047FA00BF80
:1015780080BD000080B500AF024801F093FF00BFB6
:1015880080BD00BF6C01002080B500AF024801F0AB
:1015980089FF00BF80BD00BF5805002080B500AF9F
:1015A800024801F07FFF00BF80BD00BFB8050020E2
:1015B80080B500AF024805F04AFD00BF80BD00BFFE
:1015C8009403002080B500AF024805F040FD00BF3D
:1015D80080BD00BFE003002080B500AF024805F0E1
:1015E80036FD00BF80BD00BF2C04002080B500AFD1
:1015F800024806F011FF00BF80BD00BFC4040020F0
:1016080080B500AF0321024803F0B5F900BF80BDE3
:10161800D001002080B400AF064BD3F88830054ACB
:1016280043F47003C2F8883000BFBD465DF8047B00
:10163800704700BF00ED00E080B588B000AF07F14B
:10164800100300221A605A609A60DA603B1D00227B
:101658001A605A609A601E4B4FF080421A601C4B09
:10166800A9225A601A4B00229A60194B40F2E732BD
:10167800DA60174B00221A61154B80229A611448D0
:1016880005F02DFC0346002B01D0FFF793FE4FF425
:1016980080533B6107F1100319460D4805F03AFFE6
:1016A8000346002B01D0FFF785FE00237B60002353
:1016B800FB603B1D1946064806F0EEFC0346002B6E
:1016C80001D0FFF777FE00BF2037BD4680BD00BFC1
:1016D8009403002080B588B000AF07F11003002202
:1016E8001A605A609A60DA603B1D00221A605A60DC
:1016F8009A601D4B1D4A1A601B4BA9225A601A4B4F
:1017080000229A60184B41F28732DA60164B0022A9
:101718001A61154B80229A61134805F0E0FB0346D5
:10172800002B01D0FFF746FE4FF480533B6107F1D1
:10173800100319460C4805F0EDFE0346002B01D0B6
:10174800FFF738FE00237B600023FB603B1D194632
:10175800054806F0A1FC0346002B01D0FFF72AFE3E
:1017680000BF2037BD4680BDE003002000040040D4
:1017780080B588B000AF07F1100300221A605A60E4
:101788009A60DA603B1D00221A605A609A601D4B0D
:101798001D4A1A601B4BA9225A601A4B00229A60F4
:1017A800184B42F20F72DA60164B00221A61154B81
:1017B80080229A61134805F092FB0346002B01D062
:1017C800FFF7F8FD4FF480533B6107F1100319460A
:1017D8000C4805F09FFE0346002B01D0FFF7EAFDF9
:1017E80000237B600023FB603B1D1946054806F07B
:1017F80053FC0346002B01D0FFF7DCFD00BF203768
:10180800BD4680BD2C0400200008004080B59CB077
:1018180000AF07F1600300221A605A609A60DA602C
:1018280007F1540300221A605A609A6007F13803DE
:1018380000221A605A609A60DA601A615A619A61E5
:101848003B1D342200211846FEF778FE464B474AD6
:101858001A60454B05225A60434B00229A60424B5E
:1018680040F2E732DA60404B00221A613E4B002218
:101878005A613D4B80229A613B4805F030FB034694
:10188800002B01D0FFF796FD4FF480533B6607F11C
:1018980060031946344805F03DFE0346002B01D08D
:1018A800FFF788FD304805F071FB0346002B01D097
:1018B800FFF780FD00237B650023BB650023FB65E4
:1018C80007F154031946284806F0E6FB0346002BA7
:1018D80001D0FFF76FFD6023BB634FF4FA73FB631E
:1018E80000233B6400237B640023BB640023FB6468
:1018F80000233B6507F13803082219461A4805F00A
:10190800F5FC0346002B01D0FFF754FD00237B6054
:101918000023BB600023FB6000233B6100237B6145
:101928004FF40053BB610023FB6100233B6200239B
:101938007B624FF00073BB620023FB6200233B63B2
:1019480000237B633B1D1946074806F03BFC034612
:10195800002B01D0FFF72EFD034800F079F800BFF7
:101968007037BD4680BD00BF7804002000340140B8
:1019780080B586B000AF78607B681B68B3F1804F94
:1019880014D12F4B9B6D2E4A43F0010393652C4BCA
:101998009B6D03F001037B617B69002203211C20FE
:1019A80001F0E3FB1C2001F0FAFB44E07B681B68B4
:1019B800244A934214D1224B9B6D214A43F00203DF
:1019C80093651F4B9B6D03F002033B613B6900224B
:1019D80002211D2001F0C9FB1D2001F0E0FB2AE0D7
:1019E8007B681B68184A934214D1154B9B6D144AA7
:1019F80043F004039365124B9B6D03F00403FB60F3
:101A0800FB68002203211E2001F0AFFB1E2001F01D
:101A1800C6FB10E07B681B680C4A93420BD1084B4D
:101A28001B6E074A43F400531366054B1B6E03F401
:101A38000053BB60BB6800BF1837BD4680BD00BF00
:101A4800001002400004004000080040003401403B
:101A580080B588B000AF786007F10C0300221A60E7
:101A68005A609A60DA601A617B681B68114A93426F
:101A78001CD1114BDB6C104A43F00403D3640E4BAA
:101A8800DB6C03F00403BB60BB684FF48073FB603E
:101A980002233B6100237B610323BB610423FB61B9
:101AA80007F10C031946054801F00EFE00BF203768
:101AB800BD4680BD003401400010024000080048C7
:101AC80080B500AF224B234A1A60214B4FF46122A4
:101AD8005A601F4B00229A601D4B0022DA601C4B93
:101AE80000221A611A4B0C225A61194B00229A6182
:101AF800174B0022DA61164B00221A62144B00229F
:101B08005A62134B00229A62114806F035FC0346CC
:101B1800002B01D0FFF74EFC00210D4807F08DFD8A
:101B28000346002B01D0FFF745FC0021084807F0C9
:101B3800C2FD0346002B01D0FFF73CFC044807F028
:101B480043FD0346002B01D0FFF734FC00BF80BDE6
:101B5800C40400200038014080B59EB000AF786012
:101B680007F1640300221A605A609A60DA601A6109
:101B780007F11003542200211846FEF7DFFC7B68AA
:101B88001B684E4A934240F0958001233B61002335
:101B98007B6107F11003184604F0A8FE0346002BEA
:101BA80001D0FFF707FC464B1B6E454A43F48043C0
:101BB8001366434B1B6E03F48043FB60FB68404B8A
:101BC800DB6C3F4A43F00103D3643D4BDB6C03F00D
:101BD8000103BB60BB684FF4C0637B660223BB662E
:101BE8000023FB6603233B6707237B6707F1640336
:101BF80019464FF0904001F067FD324B324A1A60A7
:101C0800304B19225A602F4B10229A602D4B00221C
:101C1800DA602C4B80221A612A4B00225A61294B28
:101C280000229A61274B0022DA61264B4FF480523A
:101C38001A62244801F0CEFA0346002B01D0FFF7C0
:101C4800B9FB7B681F4ADA671E4A7B6893621F4BA1
:101C58001F4A1A601D4B18225A601C4B00229A60BA
:101C68001A4B0022DA60194B80221A61174B0022A6
:101C78005A61164B00229A61144B0022DA61134B09
:101C88004FF480521A62114801F0A4FA0346002B5F
:101C980001D0FFF78FFB7B680C4AC3F880200B4A02
:101CA8007B68936200220521252001F05EFA252039
:101CB80001F075FA00BF7837BD4680BD0038014095
:101CC80000100240580500201C000240B805002002
:101CD8003000024080B582B000AF0023FB710320C2
:101CE80001F038FA0F2000F00DF80346002B02D05F
:101CF8000123FB7101E0FFF7E5FBFB791846083784
:101D0800BD4680BD80B584B000AF78600023FB730A
:101D1800164B1B68002B22D0154B1A68134B1B68F7
:101D28004FF47A71B1FBF3F3B2FBF3F3184601F009
:101D380044FA0346002B0FD17B680F2B09D80022E9
:101D480079684FF0FF3001F010FA0A4A7B68136097
:101D580007E00123FB7304E00123FB7301E0012387
:101D6800FB73FB7B18461037BD4680BD080000207A
:101D7800000000200400002080B400AF054B1A6862
:101D8800054B1B681344034A136000BFBD465DF84A
:101D9800047B7047180600200800002080B400AFBC
:101DA800034B1B681846BD465DF8047B704700BFAF
:101DB8001806002080B483B000AF786039607B6873
:101DC8009B6823F47C123B681A437B689A6000BFC7
:101DD8000C37BD465DF8047B704780B483B000AF14
:101DE800786039607B689B6823F0E0723B681A432F
:101DF8007B689A6000BF0C37BD465DF8047B70476E
:101E080080B483B000AF78607B689B6803F0E073B0
:101E180018460C37BD465DF8047B704780B487B020
:101E280000AFF860B9607A603B60FB6860331A46BF
:101E3800BB689B0013447B617B691A68084B13409D
:101E48007A6802F0F8413A680A43134343F00042C3
:101E58007B691A6000BF1C37BD465DF8047B70477C
:101E680000F0FF0380B485B000AF786039607B680C
:101E780060331A463B689B001344FB60FB681B6891
:101E880003F0F84318461437BD465DF8047B7047E5
:101E980080B487B000AFF860B9607A60FB686033DF
:101EA8001A46BB689B0013447B617B691B6823F05F
:101EB80000427B681A437B691A6000BF1C37BD4625
:101EC8005DF8047B704780B487B000AFF860B960F4
:101ED8007A60FB6860331A46BB689B0013447B61D9
:101EE8007B691B6823F080727B681A437B691A60E0
:101EF80000BF1C37BD465DF8047B704780B487B0CF
:101F080000AFF860B9607A60FB6860331A46BB6856
:101F18009B0013447B617B691B6823F000727B681C
:101F28001A437B691A6000BF1C37BD465DF8047B05
:101F3800704780B483B000AF786039607B685B69B4
:101F480023F000423B681A437B685A6100BF0C3794
:101F5800BD465DF8047B704780B487B000AFF86079
:101F6800B9607A60FB6830331A46BB681B0A9B006D
:101F780003F00C0313447B617B691A68BB6803F0A8
:101F88001F031F2101FA03F3DB431A407B689B0EF2
:101F980003F01F01BB6803F01F0301FA03F31A43A0
:101FA8007B691A6000BF1C37BD465DF8047B70472B
:101FB80080B487B000AFF860B9607A60FB6814330A
:101FC8001A46BB685B0E9B0003F0040313447B6155
:101FD8007B691A68BB681B0D03F01F03072101FA10
:101FE80003F3DB431A40BB681B0D03F01F0379683A
:101FF80001FA03F31A437B691A6000BF1C37BD4618
:102008005DF8047B7047000080B485B000AFF860CD
:10201800B9607A60FB68D3F8B020BB68C3F31203D9
:10202800DB431A407B6803F018030849D940BB68B2
:102038000B40C3F312031A43FB68C3F8B02000BF78
:102048001437BD465DF8047B704700BFFFFF0700EB
:1020580080B483B000AF78607B689B6823F020432E
:1020680023F03F037A68936000BF0C37BD465DF8E4
:10207800047B704780B483B000AF78607B689B684E
:1020880003F00053B3F1005F01D1012300E0002306
:1020980018460C37BD465DF8047B704780B483B0A2
:1020A80000AF78607B689B6823F0104323F03F0300
:1020B80043F080527B689A6000BF0C37BD465DF8DC
:1020C800047B704780B483B000AF78607B689B68FE
:1020D80003F08053B3F1805F01D1012300E00023B6
:1020E80018460C37BD465DF8047B704780B483B052
:1020F80000AF78607B689B6803F00103012B01D176
:10210800012300E0002318460C37BD465DF8047B28
:10211800704780B483B000AF78607B689B6803F039
:102128000403042B01D1012300E0002318460C37D7
:10213800BD465DF8047B704780B483B000AF78601B
:102148007B689B6803F00803082B01D1012300E09A
:10215800002318460C37BD465DF8047B7047000025
:1021680090B589B000AF78600023FB770023FB604F
:102178007B68002B01D10123A9E17B685B69002BF7
:102188007B68DB6D002B09D17868FEF79DFB7B68C7
:1021980000221A667B68002283F858207B681B6837
:1021A8001846FFF767FF0346002B04D07B681B68BF
:1021B8001846FFF74DFF7B681B681846FFF782FF3C
:1021C8000346002B15D17B681B681846FFF766FF8E
:1021D8009C4B1B689B099C4AA2FB03239B09013368
:1021E8005B00FB6002E0FB68013BFB60FB68002BC7
:1021F800F9D17B681B681846FFF764FF0346002B7C
:102208000DD17B68DB6D43F010027B68DA657B6873
:102218001B6E43F001027B681A660123FB777B681B
:102228001B681846FFF775FF78617B68DB6D03F064
:102238001003002B40F042817B69002B40F03E8167
:102248007B68DB6D23F4817343F002027B68DA65F7
:102258007B681B681846FFF749FF0346002B41D1EE
:102268007B681B68B3F1A04F04D07B681B68774A72
:1022780093420FD14FF0A040FFF738FF0446734850
:10228800FFF734FF03462343002B0CBF0123002331
:10229800DBB212E06E48FFF729FF04466D48FFF7EE
:1022A80025FF03461C436C48FFF720FF03462343E2
:1022B800002B0CBF01230023DBB2002B12D07B685C
:1022C8001B68B3F1A04F04D07B681B685F4A934238
:1022D80001D1624A00E0624A7B685B681946104691
:1022E800FFF768FD7B685B7F5A037B68DB6B1A43EB
:1022F8007B68DB681A437B689B681A437B6893F8A2
:1023080024301B041343BB617B6893F82430012BF2
:1023180006D17B689B6A013B5B04BA691343BB61C6
:102328007B68DB6A002B09D07B68DB6A03F4787270
:102338007B681B6B1343BA691343BB617B681B68DB
:10234800DA68484B13407A681268B9690B43D3605E
:102358007B681B681B6923F040617B685A6B7B684C
:102368001B680A431A617B681B681846FFF7E4FE7E
:1023780038617B69002B7FD13B69002B7CD17B685E
:102388001B7F9A037B6893F838305B001343BB616B
:102398007B681B68DB6823F4804323F002037A68B8
:1023A8001268B9690B43D3607B681B69002B17D08F
:1023B8007B681B681A697B681B6842F480321A6163
:1023C8007B681B68D3F8C03023F47F5323F03F03A6
:1023D8007A6811697A6812680B43C2F8C03013E052
:1023E8007B681B681A697B681B6822F480321A6153
:1023F8007B681B68D3F8C0307A68126823F47F536F
:1024080023F03F03C2F8C0307B6893F84030012BBB
:102418002AD17B681B681B6923F4FF6323F004033C
:102428007A68516C7A68926C11437A68D26C11435D
:102438007A68126D0A431A437B681B6842F00102EE
:102448001A6119E000000020632D3E0500010050CC
:102458000004005000050050000600500003005022
:10246800000700500740F0FF7B681B681A697B680B
:102478001B6822F001021A617B685B69012B0CD191
:102488007B681B681B6B23F00F017B681B6A5A1E55
:102498007B681B680A431A6307E07B681B681A6B32
:1024A8007B681B6822F00F021A637B68DB6D23F0E0
:1024B800030343F001027B68DA6507E07B68DB6DA4
:1024C80043F010027B68DA650123FB77FB7F18462F
:1024D8002437BD4690BD00BF80B5B6B000AF786068
:1024E8003960002387F8D7300023FB607B6893F8B6
:1024F8005830012B02D1022300F013BC7B68012263
:1025080083F858207B681B681846FFF702FE0346CD
:10251800002B40F0F3837B6818683B6859683B6878
:102528001B681A46FFF718FD7B681B681846FFF7FB
:10253800F0FDC7F8D0007B681B681846FFF7FCFD64
:10254800C7F8CC00D7F8D030002B40F0D981D7F8A5
:10255800CC30002B40F0D4813B689B68B3F1004F2E
:102568000FD17B6818683B681B6800221946FFF783
:102578001FFD7B681B684FF000411846FFF7D9FC28
:102588000EE07B6818683B6819683B689B681A46C8
:10259800FFF70EFD7B681B6800211846FFF7C9FC92
:1025A8003B685A697B681B68DB68DB0803F0030338
:1025B8005B0002FA03F3C7F8C8303B681B69042BB9
:1025C80022D07B6818683B6819693B681A68D7F895
:1025D800C830FFF723FC7B6818683B6819693B68BB
:1025E8009B691A46FFF76FFC7B6818683B68196996
:1025F8003B681B7F012B02D14FF0007300E00023E2
:102608001A46FFF77BFC7BE17B681B6800211846B4
:10261800FFF728FC0346C3F31203002B0AD17B689B
:102628001B6800211846FFF71DFC03469B0E03F0AC
:102638001F021EE07B681B6800211846FFF712FC8A
:102648000346C7F8BC30D7F8BC3093FAA3F3C7F8F1
:10265800B830D7F8B830C7F8C030D7F8C030002B3A
:1026680001D1202304E0D7F8C030B3FA83F3DBB2FA
:102678001A463B681B68C3F31203002B05D13B685D
:102688001B689B0E03F01F0318E03B681B68C7F824
:10269800B030D7F8B03093FAA3F3C7F8AC30D7F816
:1026A800AC30C7F8B430D7F8B430002B01D12023B0
:1026B80004E0D7F8B430B3FA83F3DBB29A4206D118
:1026C8007B681B68002200211846FFF7E1FB7B6846
:1026D8001B6801211846FFF7C5FB0346C3F3120325
:1026E800002B0AD17B681B6801211846FFF7BAFB4B
:1026F80003469B0E03F01F021EE07B681B68012146
:102708001846FFF7AFFB0346C7F8A430D7F8A43044
:1027180093FAA3F3C7F8A030D7F8A030C7F8A830C9
:10272800D7F8A830002B01D1202304E0D7F8A8302F
:10273800B3FA83F3DBB21A463B681B68C3F3120390
:10274800002B05D13B681B689B0E03F01F0318E0A4
:102758003B681B68C7F89830D7F8983093FAA3F30A
:10276800C7F89430D7F89430C7F89C30D7F89C3025
:10277800002B01D1202304E0D7F89C30B3FA83F36F
:10278800DBB29A4206D17B681B68002201211846F9
:10279800FFF77EFB7B681B6802211846FFF762FB88
:1027A8000346C3F31203002B0AD17B681B6802217E
:1027B8001846FFF757FB03469B0E03F01F021EE067
:1027C8007B681B6802211846FFF74CFB0346C7F8D5
:1027D8008C30D7F88C3093FAA3F3C7F88830D7F841
:1027E8008830C7F89030D7F89030002B01D12023DB
:1027F80004E0D7F89030B3FA83F3DBB21A463B68AB
:102808001B68C3F31203002B05D13B681B689B0EA2
:1028180003F01F0316E03B681B68C7F88030D7F841
:10282800803093FAA3F3FB67FB6FC7F88430D7F8BF
:102838008430002B01D1202304E0D7F88430B3FA88
:1028480083F3DBB29A4206D17B681B68002202211F
:102858001846FFF71DFB7B681B6803211846FFF726
:1028680001FB0346C3F31203002B0AD17B681B68E4
:1028780003211846FFF7F6FA03469B0E03F01F02E2
:1028880017E07B681B6803211846FFF7EBFA03463D
:102898007B677B6F93FAA3F33B673B6FBB67BB6FA9
:1028A800002B01D1202303E0BB6FB3FA83F3DBB223
:1028B8001A463B681B68C3F31203002B05D13B681B
:1028C8001B689B0E03F01F0311E03B681B68BB6687
:1028D800BB6E93FAA3F37B667B6EFB66FB6E002BE5
:1028E80001D1202303E0FB6EB3FA83F3DBB29A42F3
:1028F80006D17B681B68002203211846FFF7C8FA37
:102908007B681B681846FFF7F1FB0346002B40F075
:102918003D817B6818683B6819683B68DB681A4624
:10292800FFF772FB3B68DB68A24A934240F02E81B6
:102938007B6818683B681B68C3F31203002B0BD134
:102948003B681B689B0E013303F01F03092B94BFE0
:1029580001230023DBB219E03B681B68FB65FB6DB4
:1029680093FAA3F3BB65BB6D3B663B6E002B01D1AD
:10297800202303E03B6EB3FA83F3DBB2013303F0A9
:102988001F03092B94BF01230023DBB2002B79D04E
:102998003B681B68C3F31203002B07D13B681B6815
:1029A8009B0E01339B0603F0F84215E03B681B6859
:1029B8003B653B6D93FAA3F3FB64FB6C7B657B6D16
:1029C800002B01D1202303E07B6DB3FA83F3DBB244
:1029D80001339B0603F0F8423B681B68C3F31203FC
:1029E800002B09D13B681B689B0E013303F01F03C2
:1029F800012101FA03F317E03B681B687B647B6CD9
:102A080093FAA3F33B643B6CBB64BB6C002B01D112
:102A1800202303E0BB6CB3FA83F3DBB2013303F08A
:102A28001F03012101FA03F342EA03013B681B6813
:102A3800C3F31203002B0AD13B681B689B0E0133BA
:102A480003F01F0213465B0013441B0518E03B68A4
:102A58001B68BB63BB6B93FAA3F37B637B6BFB6362
:102A6800FB6B002B01D1202303E0FB6BB3FA83F34C
:102A7800DBB2013303F01F0213465B0013441B054E
:102A88000B437EE03B681B68C3F31203002B07D19E
:102A98003B681B689B0E01339B0603F0F84215E068
:102AA8003B681B68FB62FB6A93FAA3F3BB62BB6AD1
:102AB8003B633B6B002B01D1202303E03B6BB3FA54
:102AC80083F3DBB201339B0603F0F8423B681B68D3
:102AD800C3F31203002B09D13B681B689B0E01331B
:102AE80003F01F03012101FA03F317E03B681B6899
:102AF8003B623B6A93FAA3F3FB61FB697B627B6AE7
:102B0800002B01D1202303E07B6AB3FA83F3DBB205
:102B1800013303F01F03012101FA03F342EA030121
:102B28003B681B68C3F31203002B0DD13B681B687D
:102B38009B0E013303F01F0213465B0013441E3B38
:102B48001B0543F000731BE03B681B687B617B69D6
:102B580093FAA3F33B613B69BB61BB69002B01D1CD
:102B6800202303E0BB69B3FA83F3DBB2013303F03C
:102B78001F0213465B0013441E3B1B0543F0007302
:102B88000B433A6892681946FFF712FA3B681A68CD
:102B9800094B1340002B00F0BE807B681B68B3F123
:102BA800A04F04D07B681B68044A93420AD1044BA7
:102BB80009E000BF00007F400000088000010050CD
:102BC80000030050594B1846FFF71AF9C7F8C4001C
:102BD8003B681B68564A934204D03B681B68554AB9
:102BE80093423AD1D7F8C43003F40003002B34D110
:102BF8007B681B68B3F1A04F05D07B681B684E4A01
:102C0800934240F085807B681B68B3F1A04F04D0E5
:102C18007B681B68494A934201D1494A00E0434A0C
:102C2800D7F8C43043F4000319461046FFF7D5F827
:102C3800444B1B689B09444AA2FB03239B095A1C6B
:102C480013465B0013449B00FB6002E0FB68013BFA
:102C5800FB60FB68002BF9D15AE03B681B683B4AD4
:102C6800934225D1D7F8C43003F08073002B1FD1CD
:102C78007B681B68314A934204D17B681B68344ADD
:102C8800934247D07B681B68B3F1A04F04D07B68A0
:102C98001B682A4A934201D1294A00E0234AD7F8FF
:102CA800C43043F0807319461046FFF796F831E0B8
:102CB8003B681B68274A93422DD1D7F8C43003F4E8
:102CC8008003002B27D17B681B681C4A934222D0C3
:102CD8007B681B68B3F1A04F04D07B681B68174A58
:102CE800934201D1164A00E0104AD7F8C43043F4A1
:102CF800800319461046FFF770F80CE07B68DB6D1F
:102D080043F020027B68DA65012387F8D73002E0B8
:102D180000BF00E000BF7B68002283F8582097F8C6
:102D2800D7301846D837BD4680BD00BF00070050D1
:102D3800000021C31000C0900006005000010050A0
:102D48000003005000000020632D3E05000052C71C
:102D580000050050000084CB80B483B000AF7860D9
:102D68007B689B6803F00103012B01D1012300E07C
:102D7800002318460C37BD465DF8047B704780B4C5
:102D880083B000AF78607B689B6803F00403042B72
:102D980001D1012300E0002318460C37BD465DF839
:102DA800047B704790B5A1B000AF7860396000230C
:102DB80087F87F307B6893F85830012B01D10223C4
:102DC800E7E07B68012283F8582000237B66002314
:102DD800BB667B681B68B3F1A04F02D16F4BBB6029
:102DE80009E07B681B686E4A934202D16D4BBB6059
:102DF80001E00023BB60BB68002B0BD17B68DB6D57
:102E080043F020027B68DA657B68002283F858204B
:102E18000123BEE0BB681846FFF7B1FFB8677B68BF
:102E28001B681846FFF7ABFF0346002B40F0A08055
:102E3800BB6F002B40F09C807B681B68B3F1A04FF0
:102E480004D07B681B68554A934201D1564B00E079
:102E5800564B7B673B681B68002B4BD07B6F9B688E
:102E680023F460423B6859687B6893F838305B0309
:102E78000B431A437B6F9A607B681B68B3F1A04FC2
:102E880004D07B681B68454A93420FD14FF0A0409D
:102E9800FFF762FF04464148FFF75EFF03462343FE
:102EA800002B0CBF01230023DBB212E03C48FFF7E4
:102EB80053FF04463B48FFF74FFF03461C433C487B
:102EC800FFF74AFF03462343002B0CBF01230023CF
:102ED800DBB2002B56D07B6F9B6823F4716323F021
:102EE8000F033A6811683A6892680A431A437B6F7D
:102EF8009A6047E07B6F9B6823F460427B6F9A601F
:102F08007B681B68B3F1A04F04D07B681B68234A19
:102F180093420FD14FF0A040FFF71EFF04461F4811
:102F2800FFF71AFF03462343002B0CBF012300239E
:102F3800DBB212E01A48FFF70FFF04461948FFF703
:102F48000BFF03461C431A48FFF706FF03462343BB
:102F5800002B0CBF01230023DBB2002B12D07B6FA8
:102F68009B6823F4716323F00F037A6F936009E081
:102F78007B68DB6D43F020027B68DA65012387F804
:102F88007F3000E000BF7B68002283F8582097F864
:102F98007F3018468437BD4690BD00BF0001005001
:102FA80000040050000500500003005000070050C6
:102FB8000006005080B485B000AF78607B6803F0ED
:102FC8000703FB600C4BDB68BB60BA684FF6FF0376
:102FD8001340BB60FB681A02BB68134343F0BF632E
:102FE80043F40033BB60044ABB68D36000BF1437A6
:102FF800BD465DF8047B704700ED00E080B400AF8B
:10300800044BDB681B0A03F007031846BD465DF84E
:10301800047B704700ED00E080B483B000AF034646
:10302800FB7197F90730002B0BDBFB7903F01F02CC
:10303800074997F907305B09012000FA02F241F8C5
:10304800232000BF0C37BD465DF8047B704700BFE6
:1030580000E100E080B483B000AF03463960FB7143
:1030680097F90730002B0ADB3B68DAB20C4997F96D
:1030780007301201D2B20B4483F800230AE03B6800
:10308800DAB20849FB7903F00F03043B1201D2B20C
:103098000B441A7600BF0C37BD465DF8047B7047B9
:1030A80000E100E000ED00E080B489B000AFF86016
:1030B800B9607A60FB6803F00703FB61FB69C3F141
:1030C8000703042B28BF0423BB61FB690433062BC9
:1030D80002D9FB69033B00E000237B614FF0FF321C
:1030E800BB6902FA03F3DA43BB681A407B699A406A
:1030F8004FF0FF317B6901FA03F3D9437B680B403A
:10310800134318462437BD465DF8047B704700001A
:1031180080B582B000AF78607B68013BB3F1807FF7
:1031280001D301230FE00A4A7B68013B53600F215A
:103138004FF0FF30FFF78EFF054B00229A60044BDB
:1031480007221A60002318460837BD4680BD00BF15
:1031580010E000E080B582B000AF78607868FFF7D3
:1031680029FF00BF0837BD4680BD80B586B000AFD7
:103178000346B9607A60FB73FFF740FF78617A68AD
:10318800B9687869FFF790FF024697F90F30114642
:103198001846FFF75FFF00BF1837BD4680BD80B5F2
:1031A80082B000AF0346FB7197F907301846FFF766
:1031B80033FF00BF0837BD4680BD80B582B000AF81
:1031C80078607868FFF7A4FF034618460837BD46BD
:1031D80080BD000080B584B000AF78607B68002BAC
:1031E80001D101238DE07B681B681A46474B9A4240
:1031F8000FD87B681B681A46454B1344454AA2FB07
:1032080003231B099A007B685A647B68424A1A6444
:103218000EE07B681B681A46404B13443D4AA2FBEC
:1032280003231B099A007B685A647B683C4A1A642A
:103238007B68022283F825207B681B681B68FB607B
:10324800FB6823F4FF4323F07003FB607B689A68F4
:103258007B68DB681A437B681B691A437B685B6978
:103268001A437B689B691A437B68DB691A437B684E
:103278001B6A1343FA681343FB607B681B68FA6890
:103288001A60786800F0BEF97B689B68B3F5804FD8
:1032980002D17B6800225A607B685A687B689B6C05
:1032A800D2B21A607B68DB6C7A68126D5A607B68F0
:1032B8005B68002B10D07B685B68042B0CD878689F
:1032C80000F0DEF97B685B6D00221A607B689B6DFD
:1032D8007A68D26D5A6008E07B6800225A657B687C
:1032E80000229A657B680022DA657B680022DA632F
:1032F8007B68012283F825207B68002283F824203C
:10330800002318461037BD4680BD00BF07040240A1
:10331800F8FFFDBFCDCCCCCC00000240F8FBFDBFD0
:103328000004024080B485B000AF78600023FB73CE
:103338007B6893F82530DBB2022B05D07B6804222A
:10334800DA630123FB7337E07B681B681A687B68C4
:103358001B6822F00E021A607B689B6C1A687B68F7
:103368009B6C22F480721A607B681B681A687B6801
:103378001B6822F001021A607B685B6C03F01F0275
:103388007B681B6C012101FA02F25A607B68DB6CD6
:103398007A68126D5A607B685B6D002B0CD07B6875
:1033A8005B6D1A687B685B6D22F480721A607B68BB
:1033B8009B6D7A68D26D5A607B68012283F825205C
:1033C8007B68002283F82420FB7B18461437BD460F
:1033D8005DF8047B704780B584B000AF7860002347
:1033E800FB737B6893F82530DBB2022B0DD07B682A
:1033F8000422DA637B68012283F825207B68002297
:1034080083F824200123FB7347E07B681B681A6854
:103418007B681B6822F00E021A607B681B681A68BA
:103428007B681B6822F001021A607B689B6C1A6833
:103438007B689B6C22F480721A607B685B6C03F07B
:103448001F027B681B6C012101FA02F25A607B683B
:10345800DB6C7A68126D5A607B685B6D002B0CD050
:103468007B685B6D1A687B685B6D22F480721A60FA
:103478007B689B6D7A68D26D5A607B68012283F8FD
:1034880025207B68002283F824207B689B6B002B17
:1034980003D07B689B6B78689847FB7B184610378E
:1034A800BD4680BD80B584B000AF78607B681B6C7A
:1034B8001B68FB607B681B681B68BB607B685B6C78
:1034C80003F01F0304229A40FB681340002B26D008
:1034D800BB6803F00403002B21D07B681B681B68C2
:1034E80003F02003002B07D17B681B681A687B68F0
:1034F8001B6822F004021A607B685B6C03F01F02F1
:103508007B681B6C042101FA02F25A607B681B6B12
:10351800002B71D07B681B6B786898476CE07B68E0
:103528005B6C03F01F0302229A40FB681340002BD8
:103538002ED0BB6803F00203002B29D07B681B68E0
:103548001B6803F02003002B0BD17B681B681A68EB
:103558007B681B6822F00A021A607B68012283F8E4
:1035680025207B685B6C03F01F027B681B6C0221C3
:1035780001FA02F25A607B68002283F824207B68F3
:10358800DB6A002B38D07B68DB6A7868984733E0C1
:103598007B685B6C03F01F0308229A40FB681340AA
:1035A800002B2AD0BB6803F00803002B25D07B68CA
:1035B8001B681A687B681B6822F00E021A607B6819
:1035C8005B6C03F01F027B681B6C012101FA02F29D
:1035D8005A607B680122DA637B68012283F8252020
:1035E8007B68002283F824207B685B6B002B04D067
:1035F8007B685B6B7868984700BF00BF1037BD4693
:1036080080BD000080B487B000AF78607B681B681D
:103618001A46164B9A4202D8154B7B6101E0154BAE
:103628007B617B693B617B681B68DBB2083B124AA4
:10363800A2FB03231B09FB607B685B6C9B089A0059
:103648003B6913441A467B689A647B680B4ADA64C0
:10365800FB6803F01F0301229A407B681A6500BFCC
:103668001C37BD465DF8047B704700BF0704024065
:103678000008024020080240CDCCCCCC8008024093
:1036880080B485B000AF78607B685B68DBB2FB60B4
:10369800FA680B4B13449B001A467B685A657B6893
:1036A800084A9A65FB68013B03F01F0301229A4010
:1036B8007B68DA6500BF1437BD465DF8047B704748
:1036C8003F8200104009024080B487B000AF7860A4
:1036D800396000237B615AE13B681A6801217B69E4
:1036E80001FA03F31340FB60FB68002B00F04C81E8
:1036F8003B685B6803F00303012B05D03B685B68FC
:1037080003F00303022B30D17B689B683B617B6924
:103718005B00032202FA03F3DB433A6913403B617F
:103728003B68DA687B695B0002FA03F33A69134382
:103738003B617B683A699A607B685B683B61012200
:103748007B6902FA03F3DB433A6913403B613B6848
:103758005B681B0903F001027B6902FA03F33A690B
:1037680013433B617B683A695A603B685B6803F0C6
:103778000303032B17D07B68DB683B617B695B0025
:10378800032202FA03F3DB433A6913403B613B68C7
:103798009A687B695B0002FA03F33A6913433B6159
:1037A8007B683A69DA603B685B6803F00303022BC5
:1037B80023D17B69DA087B68083253F822303B61F1
:1037C8007B6903F007039B000F2202FA03F3DB4334
:1037D8003A6913403B613B681A697B6903F0070348
:1037E8009B0002FA03F33A6913433B617B69DA08E9
:1037F8007B680832396943F822107B681B683B6193
:103808007B695B00032202FA03F3DB433A69134046
:103818003B613B685B6803F003027B695B0002FA6B
:1038280003F33A6913433B617B683A691A603B6862
:103838005B6803F44033002B00F0A6805B4B1B6EE3
:103848005A4A43F001031366584B1B6E03F00103F9
:10385800BB60BB68564A7B699B08023352F8233029
:103868003B617B6903F003039B000F2202FA03F319
:10387800DB433A6913403B617B68B3F1904F1FD03B
:103888007B684C4A934219D07B684B4A934213D0C9
:103898007B684A4A93420DD07B68494A934207D0D5
:1038A8007B68484A934201D105230AE0062308E0D1
:1038B800042306E0032304E0022302E0012300E0DE
:1038C80000237A6902F00302920093403A69134395
:1038D8003B6137497B699B0802333A6941F82320E9
:1038E800394B9B683B61FB68DB433A6913403B619A
:1038F8003B685B6803F48013002B03D03A69FB68CC
:1039080013433B61304A3B6993602F4BDB683B6153
:10391800FB68DB433A6913403B613B685B6803F42F
:103928000013002B03D03A69FB6813433B61264A16
:103938003B69D360244B5B683B61FB68DB433A69B6
:1039480013403B613B685B6803F40033002B03D0F2
:103958003A69FB6813433B611B4A3B6953601A4B46
:103968001B683B61FB68DB433A6913403B613B687A
:103978005B6803F48033002B03D03A69FB68134378
:103988003B61114A3B6913607B6901337B613B688A
:103998001A687B6922FA03F3002B7FF49DAE00BFFF
:1039A80000BF1C37BD465DF8047B7047001002401D
:1039B800000001400004004800080048000C0048CE
:1039C80000100048001400480004014080B483B08F
:1039D80000AF78600B467B8013467B707B78002BAA
:1039E80003D07A887B689A6102E07A887B689A6259
:1039F80000BF0C37BD465DF8047B704780B582B0C8
:103A080000AF0346FB80084B5A69FB881340002B24
:103A180006D0054AFB885361FB88184600F006F873
:103A280000BF0837BD4680BD0004014080B483B0A4
:103A380000AF0346FB8000BF0C37BD465DF8047B32
:103A48007047000080B586B000AF78607B68002BB7
:103A580001D10123BEE07B68022283F8DD207B6868
:103A68000022C3F8E0207B680022C3F8E4207B68CA
:103A78000022C3F8E8207B680022C3F8EC207B68AA
:103A88000022C3F8F0207B680022C3F8F4207B688A
:103A98000022C3F8F8207B689B6803F00103002B21
:103AA8002ED07B681B684D4A93420BD14C4B1B6E42
:103AB8004B4A43F080631366494B1B6E03F08063E7
:103AC800FB60FB687B681B681B683B613B6923F4F0
:103AD80040433B617B681B6903F440433A691343E5
:103AE8003B613B6923F440533B617B685B6903F4AA
:103AF80040533A6913433B617B681B683A691A6013
:103B08007868FDF791FA7B689B6803F00203002B45
:103B180012D07B681B681B683B613B6923F44073C8
:103B28003B617B68DB6803F440733A6913433B618C
:103B38007B681B683A691A607B68012283F8DD207C
:103B48007B68002283F8DC200023FB753EE0FA7DC9
:103B580079681346DB009B1A9B000B44183300223C
:103B68001A60FA7D79681346DB009B1A9B000B44A8
:103B78001C3300221A60FA7D79681346DB009B1A11
:103B88009B000B44203300221A60FA7D79681346A3
:103B9800DB009B1A9B000B44243300221A60FA7D39
:103BA80079681346DB009B1A9B000B4428330022DC
:103BB8001A60FA7D79681346DB009B1A9B000B4458
:103BC800303300221A60FB7D0133FB75FB7D062B29
:103BD800BDD9002318461837BD4680BD006801408E
:103BE8000010024080B483B000AF786039607B6811
:103BF80093F8DC30012B01D1022345E07B680122D8
:103C080083F8DC207B68022283F8DD203B68B3F16F
:103C1800FF3F14D17B681B68D3F8CC237B681B68F3
:103C280022F00202C3F8CC237B681B68D3F8CC23AC
:103C38007B681B6842F00102C3F8CC231FE07B6855
:103C48001B68D3F8CC237B681B6842F00202C3F8D8
:103C5800CC237B681B68D3F8CC3323F00C017B683A
:103C68001B683A680A43C3F8CC237B681B68D3F8FF
:103C7800CC237B681B6842F00102C3F8CC237B6825
:103C8800012283F8DD20002318460C37BD465DF875
:103C9800047B704780B584B000AF78603960FEF768
:103CA8007DF8F86014E03B68B3F1FF3F10D0FEF7F1
:103CB80075F80246FB68D31A3A689A4202D33B6801
:103CC800002B05D17B68072283F8DD20032311E050
:103CD8007B681B68D3F8883303F48033B3F5803FDF
:103CE800E1D17B68012283F8DD207B68002283F81C
:103CF800DC20002318461037BD4680BD80B584B04F
:103D080000AFF860B9607A60FB6893F8DD30DBB229
:103D1800022B01D1022315E0FB68022283F8DD2083
:103D2800BB68062B04D17968F86800F03DFF04E011
:103D38007A68B968F86800F066FFFB68012283F8C2
:103D4800DD20002318461037BD4680BD80B487B0FB
:103D580000AFF860B9607A60FB6893F8DD30DBB2D9
:103D6800022B01D10223D7E1FB6893F8DC30012B49
:103D780001D10223D0E1FB68012283F8DC20FB6833
:103D8800022283F8DD20FB681B68D3F880337B614F
:103D9800FB681B68D3F8FC333B61BB68B3F5007F55
:103DA80000F06D81BB68B3F5007F00F28D81BB68C0
:103DB800B3F5807F00F03F81BB68B3F5807F00F2E8
:103DC8008381BB68802B00F01181BB68802B00F2D7
:103DD8007B81BB68202B4BD8BB68002B00F074811B
:103DE800BB68013B1F2B00F26F8101A252F823F040
:103DF800833E0008A73E0008D1400008CD3E0008D9
:103E0800D1400008D1400008D1400008F33E000826
:103E1800D1400008D1400008D1400008D140000836
:103E2800D1400008D1400008D1400008193F0008DF
:103E3800D1400008D1400008D1400008D140000816
:103E4800D1400008D1400008D1400008D140000806
:103E5800D1400008D1400008D1400008D1400008F6
:103E6800D1400008D1400008D1400008613F000857
:103E7800BB68402B00F0958026E17B6923F4E023A2
:103E88007B617B681B6803F4E0237A6913437B61D9
:103E9800FB681B687A685268C3F8BC231DE17B691C
:103EA80023F460137B617B681B68DB0003F46013F9
:103EB8007A6913437B61FB681B687A685268C3F8A8
:103EC800C0230AE17B6923F0E0737B617B681B6890
:103ED8009B0103F0E0737A6913437B61FB681B68FD
:103EE8007A685268C3F8C423F7E07B6923F06063FB
:103EF8007B617B681B685B0203F060637A6913432C
:103F08007B61FB681B687A685268C3F8C823E4E0E1
:103F18003B6923F007033B617B681B681B0C03F0BC
:103F280007033A6913433B61FB681B68D3F8F8231E
:103F3800FB681B6822F01F02C3F8F823FB681B68A4
:103F4800D3F8F8137B685B6803F01F02FB681B68F3
:103F58000A43C3F8F823C0E03B6923F070033B61D0
:103F68007B681B681B0B03F070033A6913433B61C2
:103F7800FB681B68D3F8F823FB681B6822F4787287
:103F8800C3F8F823FB681B68D3F8F8137B685B68F1
:103F98005B0103F47872FB681B680A43C3F8F823D3
:103FA8009BE03B6923F4E0633B617B681B681B0A69
:103FB80003F4E0633A6913433B61FB681B68D3F879
:103FC800F823FB681B6822F4F842C3F8F823FB685F
:103FD8001B68D3F8F8137B685B689B0203F4F8420C
:103FE800FB681B680A43C3F8F82376E03B6923F4AF
:103FF800E0433B617B681B681B0903F4E0433A69B3
:1040080013433B61FB681B68D3F8F823FB681B6804
:1040180022F4F812C3F8F823FB681B68D3F8F813E6
:104028007B685B681B0403F4F812FB681B680A438F
:10403800C3F8F82351E03B6923F4E0233B617B6834
:104048001B6803F4E0233A6913433B61FB681B6870
:10405800D3F8F823FB681B6822F07872C3F8F823BA
:10406800FB681B68D3F8F8137B685B685B0503F093
:104078007872FB681B680A43C3F8F8232DE03B6994
:1040880023F4E0033B617B681B681B0103F4E00336
:104098003A6913433B61FB681B68D3F8F823FB6854
:1040A8001B6822F0F842C3F8F823FB681B68D3F8B2
:1040B800F8137B685B689B0603F0F842FB681B6893
:1040C8000A43C3F8F82308E0FB68072283F8DD20D9
:1040D800FB68002283F8DC2000BFFB6893F8DD3022
:1040E800DBB2072B01D1012316E0BB680F2B05D8E3
:1040F800FB681B687A69C3F8802304E0FB681B68C7
:104108003A69C3F8FC23FB68012283F8DD20FB68C9
:10411800002283F8DC20002318461C37BD465DF8D2
:10412800047B704780B485B000AFF860B9607A60EE
:10413800FB6893F8DD30DBB2022B01D1022335E1B5
:10414800FB6893F8DC30012B01D102232EE1FB68D8
:10415800012283F8DC20FB68022283F8DD20BB689B
:10416800B3F5007F00F0F880BB68B3F5007F00F27C
:104178000381BB68B3F5807F00F0DE80BB68B3F5D0
:10418800807F00F2F980BB68802B00F0C580BB6897
:10419800802B00F2F180BB68202B4BD8BB68002B2A
:1041A80000F0EA80BB68013B1F2B00F2E58001A20A
:1041B80052F823F045420008634200088143000892
:1041C80083420008814300088143000881430008B6
:1041D800A342000881430008814300088143000886
:1041E8008143000881430008814300088143000897
:1041F800C342000881430008814300088143000846
:104208008143000881430008814300088143000876
:104218008143000881430008814300088143000866
:104228008143000881430008814300088143000856
:10423800E3420008BB68402B5ED09DE0FB681B682A
:10424800D3F8003423F01F017B6803F01F02FB68DA
:104258001B680A43C3F8002497E0FB681B68D3F87F
:10426800003423F4F8617B689B0103F4F862FB686F
:104278001B680A43C3F8002487E0FB681B68D3F86F
:10428800003423F4F8317B681B0303F4F832FB682D
:104298001B680A43C3F8002477E0FB681B68D3F85F
:1042A800003423F4F8017B689B0403F4F802FB68EC
:1042B8001B680A43C3F8002467E0FB681B68D3F84F
:1042C800003423F0F8517B681B0603F0F852FB68B2
:1042D8001B680A43C3F8002457E0FB681B68D3F83F
:1042E800043423F01F017B6803F01F02FB681B687E
:1042F8000A43C3F8042448E0FB681B68D3F8043475
:1043080023F4F8617B689B0103F4F862FB681B687F
:104318000A43C3F8042438E0FB681B68D3F8043464
:1043280023F4F8317B681B0303F4F832FB681B683D
:104338000A43C3F8042428E0FB681B68D3F8043454
:1043480023F4F8017B689B0403F4F802FB681B68FC
:104358000A43C3F8042418E0FB681B68D3F8043444
:1043680023F0F8517B681B0603F0F852FB681B68C2
:104378000A43C3F8042408E0FB68072283F8DD2019
:10438800FB68002283F8DC2000BFFB6893F8DD306F
:10439800DBB2072B01D1012308E0FB68012283F877
:1043A800DD20FB68002283F8DC2000231846143740
:1043B800BD465DF8047B704780B584B000AFF860F7
:1043C800B9607A60FB6893F8DD30DBB2022B01D16B
:1043D80002237AE0FB6893F8DC30012B01D1022339
:1043E80073E0FB68012283F8DC20FB68022283F873
:1043F800DD20BB68062B04D17968F86800F043FC1F
:1044080004E07A68B968F86800F0DAFC7B68196833
:10441800F868BA681346DB009B1A9B0003442033F4
:1044280019607B685968F868BA681346DB009B1AFC
:104438009B000344243319607B689968F868BA685C
:104448001346DB009B1A9B000344283319607B68E2
:10445800D968F868BA681346DB009B1A9B000344C6
:104468002C3319607B681969F868BA681346DB0051
:104478009B1A9B00034430331960B968F86800F050
:104488006DFFBB68062B17D07B68DB6A002B13D146
:10449800FB681A68BB680133DB0113441B6823F40B
:1044A80000727B68DB6D5B02F96809681A43BB68B8
:1044B8000133DB010B441A60FB68012283F8DD201D
:1044C800FB68002283F8DC20002318461037BD461D
:1044D80080BD80B584B000AFF860B9607A60FB68D1
:1044E80093F8DD30DBB2022B01D1022320E0FB6818
:1044F80093F8DC30012B01D1022319E0FB6801227B
:1045080083F8DC20FB68022283F8DD207A68B9682A
:10451800F86800F0DBFDB968F86800F01FFFFB6879
:10452800012283F8DD20FB68002283F8DC200023C9
:1045380018461037BD4680BD80B487B000AFF8601C
:10454800B9607A60FB6893F8DD30DBB2022B01D1E9
:10455800022367E0FB6893F8DC30012B01D10223CA
:1045680060E0FB68012283F8DC20FB68022283F804
:10457800DD207B681B6803F4E0537B617B685B6824
:10458800C3F308037A6913437B617B689B6803F470
:1045980000737A6913437B617B681B6903F480436A
:1045A8007A6913437B617B68DB6803F400437A69AB
:1045B80013437B617B685B691A041D4B13407A695E
:1045C80013437B617B689B6903F000737A6913432B
:1045D8007B617B681B6A03F080437A6913437B61C4
:1045E8007B68DB6903F000437A6913437B61FB68EE
:1045F8001A68BB68DB011344B8331A680D4B1340C3
:10460800FA6811687A691A43BB68DB010B44B8334E
:104618001A60FB68012283F8DD20FB68002283F81A
:10462800DC20002318461C37BD465DF8047B704724
:104638000000FF010020003C80B485B000AFF860A6
:10464800B9607A603B60FB6893F8DD30DBB2022B1F
:1046580001D1022357E1FB6893F8DC30012B01D12B
:10466800022350E1FB68012283F8DC20FB68022268
:1046780083F8DD20BB68062B40D17B68013B072B04
:104688002AD801A252F823F0B1460008BD46000816
:10469800E1460008C9460008E1460008E14600086E
:1046A800E1460008D5460008FB681B683A681268AE
:1046B800DA611AE0FB681B683A6812685A6214E00B
:1046C800FB681B683A6812689A620EE0FB681B6810
:1046D8003A681268DA6208E0FB68072283F8DD208E
:1046E800FB68002283F8DC2000BFFB6893F8DD300C
:1046F800DBB2072B40F0FE80012304E17B68013B1D
:10470800072B00F2E38001A252F823F03547000896
:1047180049470008D548000805480008D54800085A
:10472800D5480008D548000819480008FB681968EA
:104738003B681A68BB68DB010B449C331A60D1E004
:10474800FB6819683B681A68BB68DB010B44A43333
:104758001A603B685B68002B3FD0FB681A68BB682F
:104768000133DB0113441B68FA68116823F44052D3
:10477800BB680133DB010B441A60FB681A68BB682D
:104788000133DB0113441A683B685B68F968096800
:104798001A43BB680133DB010B441A603B685B6852
:1047A800B3F5005F09D1FB6819683B689A68BB6874
:1047B800DB010B449C331A6091E03B685B68B3F5FE
:1047C800405F40F08C80FB6819683B689A68BB685A
:1047D800DB010B44A8331A6081E0FB681A68BB68E8
:1047E8000133DB0113441B68FA68116823F4405253
:1047F800BB680133DB010B441A6070E0FB68196881
:104808003B681A68BB68DB010B44A8331A6069E08F
:10481800FB6819683B681A68BB68DB010B44AC335A
:104828001A603B685B68002B3FD0FB681A68BB685E
:104838000133DB0113441B68FA68116823F4404212
:10484800BB680133DB010B441A60FB681A68BB685C
:104858000133DB0113441A683B685B689B00F96805
:1048680009681A43BB680133DB010B441A603B68D3
:104878005B68B3F5005F09D1FB6819683B689A6803
:10488800BB68DB010B449C331A602AE03B685B6819
:10489800B3F5405F25D1FB6819683B689A68BB6827
:1048A800DB010B44A8331A601BE0FB681A68BB687D
:1048B8000133DB0113441B68FA68116823F4404292
:1048C800BB680133DB010B441A600AE0FB6807226E
:1048D80083F8DD20FB68002283F8DC2002E000BFBB
:1048E80000E000BFFB6893F8DD30DBB2072B01D195
:1048F800012308E0FB68012283F8DD20FB68002221
:1049080083F8DC20002318461437BD465DF8047B85
:10491800704700BF80B584B000AFF860B9607A60B6
:104928003B60FB6893F8DD30DBB2022B01D1022338
:104938001DE0FB6893F8DC30012B01D1022316E05F
:10494800FB68012283F8DC20FB68022283F8DD2063
:104958003B687A68B968F86800F018FCFB680122BF
:1049680083F8DD20FB68002283F8DC20002318464A
:104978001037BD4680BD80B582B000AF7860396021
:104988003B68FF2B03D1786800F056FD0AE03B68CE
:10499800062B03D1786800F0DFFD03E039687868FA
:1049A80000F09FFE00BF0837BD4680BD80B483B0CD
:1049B80000AF786000BF0C37BD465DF8047B7047D8
:1049C80080B483B000AF786000BF0C37BD465DF897
:1049D800047B704780B483B000AF786000BF0C37A9
:1049E800BD465DF8047B704780B483B000AF786043
:1049F80000BF0C37BD465DF8047B704780B483B0B8
:104A080000AF786000BF0C37BD465DF8047B704787
:104A180080B483B000AF786000BF0C37BD465DF846
:104A2800047B704780B483B000AF786000BF0C3758
:104A3800BD465DF8047B704780B483B000AF7860F2
:104A480000BF0C37BD465DF8047B704780B483B067
:104A580000AF786000BF0C37BD465DF8047B704737
:104A680080B483B000AF786000BF0C37BD465DF8F6
:104A7800047B704780B483B000AF7860396000BFB2
:104A88000C37BD465DF8047B704780B483B000AF37
:104A98007860396000BF0C37BD465DF8047B70470D
:104AA80080B483B000AF7860396000BF0C37BD4672
:104AB8005DF8047B704780B483B000AF78603960DC
:104AC80000BF0C37BD465DF8047B704780B483B0E7
:104AD80000AF7860396000BF0C37BD465DF8047BD5
:104AE800704780B483B000AF7860396000BF0C377E
:104AF800BD465DF8047B704780B483B000AF786032
:104B0800396000BF0C37BD465DF8047B704780B440
:104B180083B000AF7860396000BF0C37BD465DF8E0
:104B2800047B704780B483B000AF7860396000BF01
:104B38000C37BD465DF8047B704780B483B000AF86
:104B48007860396000BF0C37BD465DF8047B70475C
:104B580080B483B000AF7860396000BF0C37BD46C1
:104B68005DF8047B704780B483B000AF786039602B
:104B780000BF0C37BD465DF8047B704780B483B036
:104B880000AF7860396000BF0C37BD465DF8047B24
:104B9800704780B483B000AF7860396000BF0C37CD
:104BA800BD465DF8047B704780B485B000AF78607F
:104BB80039607B681B681B68FB60FB6823F0070390
:104BC800FB603B689B68FA681343FB60FB6823F053
:104BD8001803FB603B68DB68FA681343FB607B687B
:104BE8001B68FA681A607B681B683A6812685A6121
:104BF8007B681B683A6852689A6100BF1437BD46E3
:104C08005DF8047B704780B487B000AFF860B96086
:104C18007A60FB681A68BB680133DB0113441B68C0
:104C28007B617B6923F007037B617B689B687A69FA
:104C380013437B617B6923F018037B617B68DB6826
:104C48007A6913437B61FB681A68BB680133DB012F
:104C580013447A691A60FB6819687B681A68BB682C
:104C6800DB010B4494331A60FB6819687B685A6847
:104C7800BB68DB010B4498331A6000BF1C37BD4684
:104C88005DF8047B704780B485B000AF7860396008
:104C98007B681B681B68FB607B681B68D3F8A033C4
:104CA800BB60FB6823F02003FB603B685B69FA6824
:104CB8001343FB60FB6823F0C003FB603B685B6940
:104CC800202B03D03B689B69022B08D1FB6823F09B
:104CD800C003FB60FB6843F02003FB6021E03B68F6
:104CE8009B69032B08D1FB6843F04003FB60FB681A
:104CF80023F08003FB6014E03B689B69042B08D118
:104D0800FB6843F08003FB60FB6823F04003FB6013
:104D180007E0FB6823F02003FB60FB6823F0C00377
:104D2800FB60FB6823F40063FB603B68DB69FA689F
:104D38001343FB60FB6823F48063FB603B681B6ADA
:104D4800FA681343FB60FB6823F0C063FB603B68B1
:104D58005B6AFA681343FB60FB6823F00063FB603F
:104D68003B689B6AFA681343FB60FB6823F0404387
:104D7800FB603B68DB6A9B00FA681343FB60FB68D7
:104D880023F00053FB603B685B6BFA681343FB60DE
:104D9800BB6823F48033BB603B681B6BBA68134362
:104DA800BB607B681B68FA681A607B681B68BA6816
:104DB800C3F8A02300BF1437BD465DF8047B7047D5
:104DC80080B48BB000AFF860B9607A60FB681A688D
:104DD800BB680133DB0113441B68FA68116823F0D0
:104DE8007042BB680133DB010B441A60FB681A6828
:104DF800BB680133DB0113441B687B62FB681A68DC
:104E0800BB68DB011344E8331B68BB61FB681A68A5
:104E1800BB68DB011344E4331B683B62FB681B6817
:104E2800D3F8A033FB617B6A23F020037B627B68A5
:104E38005B697A6A13437B627B685B69202B03D0CA
:104E48007B689B69022B08D17B6A23F4C0737B6261
:104E58007B6A43F020037B6221E07B689B69032B1C
:104E680008D17B6A43F080037B627B6A23F48073FA
:104E78007B6214E07B689B69042B08D17B6A43F44E
:104E880080737B627B6A23F080037B6207E07B6A26
:104E980023F020037B627B6A23F4C0737B627B6A06
:104EA80023F400637B627B68DB697A6A13437B6265
:104EB8007B6A23F480637B627B681B6A7A6A13438C
:104EC8007B627B6A23F0C0637B627B685B6A7A6A79
:104ED80013437B627B6A23F000637B627B689B6A77
:104EE8007A6A13437B627B6A23F070437B627B6838
:104EF800DB6A7A6A13437B627B6A23F400337B6242
:104F08007B685B6BB3F1005F03D17B6A43F40033CA
:104F18007B627B6A23F040037B627B689B6B7A6AC7
:104F280013437B627B6A23F480237B627B689B6DDF
:104F38007A6A13437B627B6A23F0FC7323F4803321
:104F48007B627B681B6D7A6A13437B62BB6923F0C3
:104F58003F03BB617B68DB6B03F03F03BA69134314
:104F6800BB61BB6923F00043BB617B681B6CBA69FA
:104F78001343BB613B6A23F480733B627B685B6CC1
:104F88003A6A13433B627B689B6CB3F5606F04D04D
:104F98007B689B6CB3F5F05F03D17B689B6B402B00
:104FA80008D13B6A23F4F0533B627B689B6C3A6AF6
:104FB80013433B623B6A23F480433B627B68DB6CB0
:104FC8003A6A13433B627B685B6D7B61BB68052B68
:104FD80050D801A252F823F0F94F00080F500008EA
:104FE800255000083B500008515000086750000841
:104FF800FB6923F40033FB617B681B6B5B00FA6978
:105008001343FB6137E0FB6923F48023FB617B6872
:105018001B6B9B00FA691343FB612CE0FB6923F4CB
:105028000023FB617B681B6BDB00FA691343FB61A0
:1050380021E0FB6923F48013FB617B681B6B1B0178
:10504800FA691343FB6116E0FB6923F40013FB6163
:105058007B681B6B5B01FA691343FB610BE0FB691F
:1050680023F48003FB617B681B6B9B01FA69134384
:10507800FB6100E000BFFB681A68BB680133DB0115
:1050880013447A6A1A60FB681A68BB68DB01134428
:10509800E833BA691A60FB681A68BB68DB01134415
:1050A800E4333A6A1A60FB681A68BB68DB01134488
:1050B800D4337A691A60FB681B68FA69C3F8A023BD
:1050C80000BF2C37BD465DF8047B704780B487B0BD
:1050D80000AFF860B9607A60FB681A68BB68DB01EA
:1050E8001344EC331B687B617B6923F010037B61FD
:1050F8007B681B681B017A6913437B617B6923F416
:1051080080137B617B685B687A6913437B617B6989
:1051180023F480337B617B68DB687A6913437B61A6
:105128007B6923F400337B617B689B687A6913434E
:105138007B617B689B69012B1AD17B6923F004038F
:105148007B617B681B697A6913437B617B6923F008
:1051580002037B617B685B697A6913437B617B69C6
:1051680023F001037B617B689B697A6913437B6148
:10517800FB681A68BB68DB011344EC337A691A6070
:1051880000BF1C37BD465DF8047B704780B489B00A
:1051980000AFF860B9607A603B600023BB61FB68D0
:1051A8001A68BB68DB011344E4331B68FB61FB68C6
:1051B8001A68BB68DB011344B8331B687B617B68E2
:1051C800B3F5006F5DD07B68B3F5006F6ED87B6870
:1051D800B3F5806F42D07B68B3F5806F66D87B6883
:1051E800B3F5007F4DD07B68B3F5007F5ED87B6850
:1051F800B3F5807F32D07B68B3F5807F56D87B6863
:10520800802B3ED07B68802B50D87B68402B25D0E4
:105218007B68402B4AD87B68012B1FD07B68002B0A
:1052280044D07B68202B41D87B68022B3ED37B6817
:10523800023B01229A40484B1340002B14BF012324
:105248000023DBB2002B1CD144F204031340002BD3
:1052580014BF01230023DBB2002B27D0FB68196899
:105268003B685A68BB68DB010B44BC331A60FB68B7
:1052780019683B689A68BB68DB010B44C0331A6045
:1052880015E0FB6819683B685A68BB68DB010B448A
:10529800C4331A60FB6819683B689A68BB68DB010D
:1052A8000B44C8331A601023BB6100E000BFFE2224
:1052B800BB6902FA03F3DB43FA691340FB613B68FD
:1052C8001A68BB6902FA03F3FA691343FB613B6886
:1052D800DA68BB6902FA03F3FA691343FB613B68B6
:1052E8001A69BB6902FA03F3FA691343FB613B6865
:1052F8005A69BB6902FA03F3FA691343FB613B6815
:105308009A69BB6902FA03F3FA691343FB613B68C4
:105318001B69082B11D17B6903F40073002B0CD196
:105328007B6903F00073002B07D13B68DA69BB691E
:1053380002FA03F3FA691343FB61FB681A68BB6856
:10534800DB011344E433FA691A6000BF2437BD4611
:105358005DF8047B704700BF4100004080B483B013
:1053680000AF786039603B68062B5ED801A252F81E
:1053780023F000BFAF530008C5530008DB530008F3
:10538800F1530008075400081D54000899530008F9
:105398007B681B68D3F884237B681B6842F0010292
:1053A800C3F8842342E07B681B68D3F884237B68B6
:1053B8001B6842F00202C3F8842337E07B681B684D
:1053C800D3F884237B681B6842F00402C3F8842363
:1053D8002CE07B681B68D3F884237B681B6842F049
:1053E8000802C3F8842321E07B681B68D3F8842370
:1053F8007B681B6842F01002C3F8842316E07B68C0
:105408001B68D3F884237B681B6842F02002C3F82A
:1054180084230BE07B681B68D3F884237B681B68B4
:1054280042F04002C3F8842300E000BF00BF0C37FD
:10543800BD465DF8047B704780B584B000AF7860E6
:105448007B681B68D3F88833FB607B681B68D3F8DC
:105458009033BB60FB6803F00103002B0CD0BB68E2
:1054680003F00103002B07D07B681B680122C3F8F7
:105478008C237868FFF79AFAFB6803F00203002B85
:105488000CD0BB6803F00203002B07D07B681B68B5
:105498000222C3F88C237868FFF792FAFB6803F0BE
:1054A8000403002B0CD0BB6803F00403002B07D0C7
:1054B8007B681B680422C3F88C237868FFF78AFA94
:1054C800FB6803F00803002B0CD0BB6803F008034B
:1054D800002B07D07B681B680822C3F88C237868E8
:1054E800FFF782FAFB6803F01003002B0CD0BB68AF
:1054F80003F01003002B07D07B681B681022C3F849
:105508008C237868FFF77AFAFB6803F04003002BD6
:105518000CD0BB6803F04003002B07D07B681B68E6
:105528004022C3F88C237868FFF772FAFB6803F00F
:105538002003002B0CD0BB6803F02003002B07D0FE
:105548007B681B682022C3F88C237868FFF76AFA07
:1055580000BF1037BD4680BD80B586B000AF78600B
:105568007B681B68D3F888337B617B681B68D3F83A
:1055780090333B617B681B685B68FB607B681B68DA
:10558800DB68BB607B6903F48033002B15D03B6973
:1055980003F48033002B10D07B681B684FF48032F3
:1055A800C3F88C237B68012283F8DD207B68002206
:1055B80083F8DC207868FFF73FFA7B6903F400334F
:1055C800002B0DD03B6903F40033002B08D07B6817
:1055D8001B684FF40032C3F88C237868FFF736FA5B
:1055E800FB6803F00103002B0CD0BB6803F0010338
:1055F800002B07D07B681B6801229A600621786817
:10560800FFF74EFAFB6803F00203002B0CD0BB68CF
:1056180003F00203002B07D07B681B6802229A6004
:1056280006217868FFF747FAFB6803F00403002BAC
:105638000CD0BB6803F00403002B07D07B681B6801
:1056480004229A6006217868FFF740FAFB6803F0A5
:105658000803002B0CD0BB6803F00803002B07D00D
:105668007B681B6808229A6006217868FFF739FA78
:10567800FB6803F01003002B0CD0BB6803F0100389
:10568800002B07D07B681B6810229A600621786877
:10569800FFF7FBF9FB6803F02003002B0BD0BB6876
:1056A80003F02003002B06D07B681B6820229A6039
:1056B8007868FFF7D5F9FB6803F04003002B0CD09E
:1056C800BB6803F04003002B07D07B681B684022AF
:1056D8009A6006217868FFF7CDF900BF1837BD46F4
:1056E80080BD80B584B000AF786039607B681A6887
:1056F8003B680133DB01134404331B68FB607B68A0
:105708001A683B68DB0113448C331B68BB60FB6879
:1057180003F00103002B10D0BB6803F00103002B3A
:105728000BD07B681A683B68DB011344883301227D
:105738001A6039687868FFF7B3F9FB6803F0020369
:10574800002B10D0BB6803F00203002B0BD07B6842
:105758001A683B68DB011344883302221A603968EF
:105768007868FFF7A8F9FB6803F00403002B10D052
:10577800BB6803F00403002B0BD07B681A683B68F6
:10578800DB011344883304221A6039687868FFF70C
:105798009DF9FB6803F00803002B10D0BB6803F0E9
:1057A8000803002B0BD07B681A683B68DB011344A5
:1057B800883308221A6039687868FFF792F9FB681D
:1057C80003F01003002B10D0BB6803F01003002B6C
:1057D8000BD07B681A683B68DB01134488331022BE
:1057E8001A6039687868FFF750F9FB6803F04003DE
:1057F800002B10D0BB6803F04003002B0BD07B6854
:105808001A683B68DB011344883340221A60396800
:105818007868FFF72FF9FB6803F08003002B10D09E
:10582800BB6803F08003002B0BD07B681A683B68C9
:10583800DB011344883380221A6039687868FFF7DF
:105848005BF9FB6803F48073002B11D0BB6803F489
:105858008073002B0CD07B681A683B68DB0113440B
:1058680088334FF480721A6039687868FFF74FF907
:10587800FB6803F40073002B11D0BB6803F40073BA
:10588800002B0CD07B681A683B68DB011344883313
:105898004FF400721A6039687868FFF759F9FB68A5
:1058A80003F48063002B11D0BB6803F48063002BE2
:1058B8000CD07B681A683B68DB01134488334FF4CB
:1058C80080621A6039687868FFF74DF9FB6803F45D
:1058D8000063002B11D0BB6803F40063002B0CD0CD
:1058E8007B681A683B68DB01134488334FF4006215
:1058F8001A6039687868FFF741F9FB6803F4805348
:10590800002B11D0BB6803F48053002B0CD07B68AC
:105918001A683B68DB01134488334FF480521A60DD
:1059280039687868FFF735F9FB6803F40053002BF2
:1059380011D0BB6803F40053002B0CD07B681A68A5
:105948003B68DB01134488334FF400521A6039680E
:105958007868FFF7F2F8FB6803F48043002B11D056
:10596800BB6803F48043002B0CD07B681A683B6843
:10597800DB01134488334FF480421A603968786831
:10598800FFF7D0F800BF1037BD4680BD80B582B0A4
:1059980000AF78607B68002B01D101238DE07B6824
:1059A80093F84130DBB2002B06D17B68002283F8E4
:1059B80040207868FBF7F8FB7B68242283F84120B5
:1059C8007B681B681A687B681B6822F001021A60F2
:1059D8007B685A687B681B6822F070621A617B6872
:1059E8001B689A687B681B6822F400429A607B688F
:1059F800DB68012B07D17B689A687B681B6842F4D7
:105A080000429A6006E07B689A687B681B6842F4EB
:105A180004429A607B68DB68022B08D17B681B68AC
:105A28005A687B681B6842F400625A6007E07B682A
:105A38001B685A687B681B6822F400625A607B689E
:105A48001B685B687A68126843F0007343F400438C
:105A580053607B681B68DA687B681B6822F4004225
:105A6800DA607B681A697B685B6942EA03017B68D4
:105A78009B691A027B681B680A43DA607B68D969EC
:105A88007B681A6A7B681B680A431A607B681B6814
:105A98001A687B681B6842F001021A607B68002262
:105AA8005A647B68202283F841207B6800221A63AD
:105AB8007B68002283F84220002318460837BD4639
:105AC80080BD80B483B000AF786039607B6893F89C
